{
  "_format": "hh-sol-artifact-1",
  "contractName": "NFTMarketplace",
  "sourceName": "contracts/NFTMarketplace.sol",
  "abi": [
    {
      "inputs": [],
      "stateMutability": "nonpayable",
      "type": "constructor"
    },
    {
      "anonymous": false,
      "inputs": [
        {
          "indexed": true,
          "internalType": "address",
          "name": "owner",
          "type": "address"
        },
        {
          "indexed": true,
          "internalType": "address",
          "name": "approved",
          "type": "address"
        },
        {
          "indexed": true,
          "internalType": "uint256",
          "name": "tokenId",
          "type": "uint256"
        }
      ],
      "name": "Approval",
      "type": "event"
    },
    {
      "anonymous": false,
      "inputs": [
        {
          "indexed": true,
          "internalType": "address",
          "name": "owner",
          "type": "address"
        },
        {
          "indexed": true,
          "internalType": "address",
          "name": "operator",
          "type": "address"
        },
        {
          "indexed": false,
          "internalType": "bool",
          "name": "approved",
          "type": "bool"
        }
      ],
      "name": "ApprovalForAll",
      "type": "event"
    },
    {
      "anonymous": false,
      "inputs": [
        {
          "indexed": true,
          "internalType": "address",
          "name": "from",
          "type": "address"
        },
        {
          "indexed": true,
          "internalType": "address",
          "name": "to",
          "type": "address"
        },
        {
          "indexed": true,
          "internalType": "uint256",
          "name": "tokenId",
          "type": "uint256"
        }
      ],
      "name": "Transfer",
      "type": "event"
    },
    {
      "inputs": [
        {
          "internalType": "address",
          "name": "to",
          "type": "address"
        },
        {
          "internalType": "uint256",
          "name": "tokenId",
          "type": "uint256"
        }
      ],
      "name": "approve",
      "outputs": [],
      "stateMutability": "nonpayable",
      "type": "function"
    },
    {
      "inputs": [
        {
          "internalType": "address",
          "name": "owner",
          "type": "address"
        }
      ],
      "name": "balanceOf",
      "outputs": [
        {
          "internalType": "uint256",
          "name": "",
          "type": "uint256"
        }
      ],
      "stateMutability": "view",
      "type": "function"
    },
    {
      "inputs": [
        {
          "internalType": "string",
          "name": "tokenURI",
          "type": "string"
        },
        {
          "internalType": "uint256",
          "name": "price",
          "type": "uint256"
        }
      ],
      "name": "createToken",
      "outputs": [
        {
          "internalType": "uint256",
          "name": "",
          "type": "uint256"
        }
      ],
      "stateMutability": "payable",
      "type": "function"
    },
    {
      "inputs": [
        {
          "internalType": "uint256",
          "name": "tokenId",
          "type": "uint256"
        }
      ],
      "name": "executeSale",
      "outputs": [],
      "stateMutability": "payable",
      "type": "function"
    },
    {
      "inputs": [],
      "name": "getAllNFTs",
      "outputs": [
        {
          "components": [
            {
              "internalType": "uint256",
              "name": "tokenId",
              "type": "uint256"
            },
            {
              "internalType": "address payable",
              "name": "owner",
              "type": "address"
            },
            {
              "internalType": "address payable",
              "name": "seller",
              "type": "address"
            },
            {
              "internalType": "uint256",
              "name": "price",
              "type": "uint256"
            },
            {
              "internalType": "bool",
              "name": "currentlyListed",
              "type": "bool"
            }
          ],
          "internalType": "struct NFTMarketplace.ListedToken[]",
          "name": "",
          "type": "tuple[]"
        }
      ],
      "stateMutability": "view",
      "type": "function"
    },
    {
      "inputs": [
        {
          "internalType": "uint256",
          "name": "tokenId",
          "type": "uint256"
        }
      ],
      "name": "getApproved",
      "outputs": [
        {
          "internalType": "address",
          "name": "",
          "type": "address"
        }
      ],
      "stateMutability": "view",
      "type": "function"
    },
    {
      "inputs": [],
      "name": "getCurrentToken",
      "outputs": [
        {
          "internalType": "uint256",
          "name": "",
          "type": "uint256"
        }
      ],
      "stateMutability": "view",
      "type": "function"
    },
    {
      "inputs": [],
      "name": "getLatestIdToListedToken",
      "outputs": [
        {
          "components": [
            {
              "internalType": "uint256",
              "name": "tokenId",
              "type": "uint256"
            },
            {
              "internalType": "address payable",
              "name": "owner",
              "type": "address"
            },
            {
              "internalType": "address payable",
              "name": "seller",
              "type": "address"
            },
            {
              "internalType": "uint256",
              "name": "price",
              "type": "uint256"
            },
            {
              "internalType": "bool",
              "name": "currentlyListed",
              "type": "bool"
            }
          ],
          "internalType": "struct NFTMarketplace.ListedToken",
          "name": "",
          "type": "tuple"
        }
      ],
      "stateMutability": "view",
      "type": "function"
    },
    {
      "inputs": [],
      "name": "getListPrice",
      "outputs": [
        {
          "internalType": "uint256",
          "name": "",
          "type": "uint256"
        }
      ],
      "stateMutability": "view",
      "type": "function"
    },
    {
      "inputs": [
        {
          "internalType": "uint256",
          "name": "tokenId",
          "type": "uint256"
        }
      ],
      "name": "getListedfortokenId",
      "outputs": [
        {
          "components": [
            {
              "internalType": "uint256",
              "name": "tokenId",
              "type": "uint256"
            },
            {
              "internalType": "address payable",
              "name": "owner",
              "type": "address"
            },
            {
              "internalType": "address payable",
              "name": "seller",
              "type": "address"
            },
            {
              "internalType": "uint256",
              "name": "price",
              "type": "uint256"
            },
            {
              "internalType": "bool",
              "name": "currentlyListed",
              "type": "bool"
            }
          ],
          "internalType": "struct NFTMarketplace.ListedToken",
          "name": "",
          "type": "tuple"
        }
      ],
      "stateMutability": "view",
      "type": "function"
    },
    {
      "inputs": [],
      "name": "getMyNFTs",
      "outputs": [
        {
          "components": [
            {
              "internalType": "uint256",
              "name": "tokenId",
              "type": "uint256"
            },
            {
              "internalType": "address payable",
              "name": "owner",
              "type": "address"
            },
            {
              "internalType": "address payable",
              "name": "seller",
              "type": "address"
            },
            {
              "internalType": "uint256",
              "name": "price",
              "type": "uint256"
            },
            {
              "internalType": "bool",
              "name": "currentlyListed",
              "type": "bool"
            }
          ],
          "internalType": "struct NFTMarketplace.ListedToken[]",
          "name": "",
          "type": "tuple[]"
        }
      ],
      "stateMutability": "view",
      "type": "function"
    },
    {
      "inputs": [
        {
          "internalType": "address",
          "name": "owner",
          "type": "address"
        },
        {
          "internalType": "address",
          "name": "operator",
          "type": "address"
        }
      ],
      "name": "isApprovedForAll",
      "outputs": [
        {
          "internalType": "bool",
          "name": "",
          "type": "bool"
        }
      ],
      "stateMutability": "view",
      "type": "function"
    },
    {
      "inputs": [],
      "name": "name",
      "outputs": [
        {
          "internalType": "string",
          "name": "",
          "type": "string"
        }
      ],
      "stateMutability": "view",
      "type": "function"
    },
    {
      "inputs": [
        {
          "internalType": "uint256",
          "name": "tokenId",
          "type": "uint256"
        }
      ],
      "name": "ownerOf",
      "outputs": [
        {
          "internalType": "address",
          "name": "",
          "type": "address"
        }
      ],
      "stateMutability": "view",
      "type": "function"
    },
    {
      "inputs": [
        {
          "internalType": "address",
          "name": "from",
          "type": "address"
        },
        {
          "internalType": "address",
          "name": "to",
          "type": "address"
        },
        {
          "internalType": "uint256",
          "name": "tokenId",
          "type": "uint256"
        }
      ],
      "name": "safeTransferFrom",
      "outputs": [],
      "stateMutability": "nonpayable",
      "type": "function"
    },
    {
      "inputs": [
        {
          "internalType": "address",
          "name": "from",
          "type": "address"
        },
        {
          "internalType": "address",
          "name": "to",
          "type": "address"
        },
        {
          "internalType": "uint256",
          "name": "tokenId",
          "type": "uint256"
        },
        {
          "internalType": "bytes",
          "name": "data",
          "type": "bytes"
        }
      ],
      "name": "safeTransferFrom",
      "outputs": [],
      "stateMutability": "nonpayable",
      "type": "function"
    },
    {
      "inputs": [
        {
          "internalType": "address",
          "name": "operator",
          "type": "address"
        },
        {
          "internalType": "bool",
          "name": "approved",
          "type": "bool"
        }
      ],
      "name": "setApprovalForAll",
      "outputs": [],
      "stateMutability": "nonpayable",
      "type": "function"
    },
    {
      "inputs": [
        {
          "internalType": "bytes4",
          "name": "interfaceId",
          "type": "bytes4"
        }
      ],
      "name": "supportsInterface",
      "outputs": [
        {
          "internalType": "bool",
          "name": "",
          "type": "bool"
        }
      ],
      "stateMutability": "view",
      "type": "function"
    },
    {
      "inputs": [],
      "name": "symbol",
      "outputs": [
        {
          "internalType": "string",
          "name": "",
          "type": "string"
        }
      ],
      "stateMutability": "view",
      "type": "function"
    },
    {
      "inputs": [
        {
          "internalType": "uint256",
          "name": "tokenId",
          "type": "uint256"
        }
      ],
      "name": "tokenURI",
      "outputs": [
        {
          "internalType": "string",
          "name": "",
          "type": "string"
        }
      ],
      "stateMutability": "view",
      "type": "function"
    },
    {
      "inputs": [
        {
          "internalType": "address",
          "name": "from",
          "type": "address"
        },
        {
          "internalType": "address",
          "name": "to",
          "type": "address"
        },
        {
          "internalType": "uint256",
          "name": "tokenId",
          "type": "uint256"
        }
      ],
      "name": "transferFrom",
      "outputs": [],
      "stateMutability": "nonpayable",
      "type": "function"
    },
    {
      "inputs": [
        {
          "internalType": "uint256",
          "name": "_listprice",
          "type": "uint256"
        }
      ],
      "name": "updateListPrice",
      "outputs": [],
      "stateMutability": "payable",
      "type": "function"
    }
  ],
  "bytecode": "0x6080604052662386f26fc10000600a553480156200001c57600080fd5b50604080518082018252600e81526d4e46544d61726b6574506c61636560901b6020808301918252835180850190945260048452634e46544d60e01b9084015281519192916200006f91600091620000a0565b50805162000085906001906020840190620000a0565b5050600780546001600160a01b031916331790555062000183565b828054620000ae9062000146565b90600052602060002090601f016020900481019282620000d257600085556200011d565b82601f10620000ed57805160ff19168380011785556200011d565b828001600101855582156200011d579182015b828111156200011d57825182559160200191906001019062000100565b506200012b9291506200012f565b5090565b5b808211156200012b576000815560010162000130565b600181811c908216806200015b57607f821691505b602082108114156200017d57634e487b7160e01b600052602260045260246000fd5b50919050565b61211280620001936000396000f3fe6080604052600436106101355760003560e01c8063822992cf116100ab578063c322579c1161006f578063c322579c14610354578063c87b56dd14610367578063d1a88ae514610387578063e0391b091461039c578063e985e9c5146103b1578063ef2d1746146103fa57600080fd5b8063822992cf146102bf57806395d89b41146102ec5780639b1225c414610301578063a22cb46514610314578063b88d4fde1461033457600080fd5b806342842e0e116100fd57806342842e0e1461020b578063629cb2e41461022b5780636352211e1461024d57806368f1945f1461026d57806370a082311461028c57806372b3b620146102ac57600080fd5b806301ffc9a71461013a57806306fdde031461016f578063081812fc14610191578063095ea7b3146101c957806323b872dd146101eb575b600080fd5b34801561014657600080fd5b5061015a610155366004611d18565b61040f565b60405190151581526020015b60405180910390f35b34801561017b57600080fd5b50610184610461565b6040516101669190611ee4565b34801561019d57600080fd5b506101b16101ac366004611da6565b6104f3565b6040516001600160a01b039091168152602001610166565b3480156101d557600080fd5b506101e96101e4366004611cef565b61051a565b005b3480156101f757600080fd5b506101e9610206366004611c01565b610635565b34801561021757600080fd5b506101e9610226366004611c01565b610666565b34801561023757600080fd5b50610240610681565b6040516101669190611e96565b34801561025957600080fd5b506101b1610268366004611da6565b6108c4565b34801561027957600080fd5b50600a545b604051908152602001610166565b34801561029857600080fd5b5061027e6102a7366004611bb5565b610924565b61027e6102ba366004611d50565b6109aa565b3480156102cb57600080fd5b506102df6102da366004611da6565b610a8d565b6040516101669190611fdb565b3480156102f857600080fd5b50610184610af7565b6101e961030f366004611da6565b610b06565b34801561032057600080fd5b506101e961032f366004611cb5565b610c64565b34801561034057600080fd5b506101e961034f366004611c3c565b610c73565b6101e9610362366004611da6565b610ca5565b34801561037357600080fd5b50610184610382366004611da6565b610d14565b34801561039357600080fd5b506102df610e25565b3480156103a857600080fd5b50610240610e9c565b3480156103bd57600080fd5b5061015a6103cc366004611bcf565b6001600160a01b03918216600090815260056020908152604080832093909416825291909152205460ff1690565b34801561040657600080fd5b5061027e610fe3565b60006001600160e01b031982166380ac58cd60e01b148061044057506001600160e01b03198216635b5e139f60e01b145b8061045b57506301ffc9a760e01b6001600160e01b03198316145b92915050565b60606000805461047090612044565b80601f016020809104026020016040519081016040528092919081815260200182805461049c90612044565b80156104e95780601f106104be576101008083540402835291602001916104e9565b820191906000526020600020905b8154815290600101906020018083116104cc57829003601f168201915b5050505050905090565b60006104fe82610ff3565b506000908152600460205260409020546001600160a01b031690565b6000610525826108c4565b9050806001600160a01b0316836001600160a01b031614156105985760405162461bcd60e51b815260206004820152602160248201527f4552433732313a20617070726f76616c20746f2063757272656e74206f776e656044820152603960f91b60648201526084015b60405180910390fd5b336001600160a01b03821614806105b457506105b481336103cc565b6106265760405162461bcd60e51b815260206004820152603d60248201527f4552433732313a20617070726f76652063616c6c6572206973206e6f7420746f60448201527f6b656e206f776e6572206f7220617070726f76656420666f7220616c6c000000606482015260840161058f565b6106308383611055565b505050565b61063f33826110c3565b61065b5760405162461bcd60e51b815260040161058f90611ef7565b610630838383611141565b61063083838360405180602001604052806000815250610c73565b6060600061068e60085490565b905060008080805b848110156107265733600b60006106ae846001611fe9565b81526020810191909152604001600020600101546001600160a01b03161480610701575033600b60006106e2846001611fe9565b81526020810191909152604001600020600201546001600160a01b0316145b1561071457610711600185611fe9565b93505b8061071e8161207f565b915050610696565b5060008367ffffffffffffffff81111561075057634e487b7160e01b600052604160045260246000fd5b60405190808252806020026020018201604052801561078957816020015b610776611a5c565b81526020019060019003908161076e5790505b50905060005b858110156108ba5733600b60006107a7846001611fe9565b81526020810191909152604001600020600101546001600160a01b031614806107fa575033600b60006107db846001611fe9565b81526020810191909152604001600020600201546001600160a01b0316145b156108a85761080a816001611fe9565b6000818152600b6020908152604091829020825160a0810184528154815260018201546001600160a01b039081169382019390935260028201549092169282019290925260038201546060820152600482015460ff16151560808201528451929550909184908790811061088e57634e487b7160e01b600052603260045260246000fd5b60209081029190910101526108a4600186611fe9565b9450505b806108b28161207f565b91505061078f565b5095945050505050565b6000818152600260205260408120546001600160a01b03168061045b5760405162461bcd60e51b8152602060048201526018602482015277115490cdcc8c4e881a5b9d985b1a59081d1bdad95b88125160421b604482015260640161058f565b60006001600160a01b03821661098e5760405162461bcd60e51b815260206004820152602960248201527f4552433732313a2061646472657373207a65726f206973206e6f7420612076616044820152683634b21037bbb732b960b91b606482015260840161058f565b506001600160a01b031660009081526003602052604090205490565b6000600a5434146109fd5760405162461bcd60e51b815260206004820152601960248201527f53656e6420656e6f75676820657468657220746f206c69737400000000000000604482015260640161058f565b60008211610a4d5760405162461bcd60e51b815260206004820152601e60248201527f4d616b6520737572652070726963652069736e2774206e656761746976650000604482015260640161058f565b610a5b600880546001019055565b6000610a6660085490565b9050610a7233826112b2565b610a7c81856112cc565b610a868184611366565b9392505050565b610a95611a5c565b506000908152600b6020908152604091829020825160a0810184528154815260018201546001600160a01b03908116938201939093526002820154909216928201929092526003820154606082015260049091015460ff161515608082015290565b60606001805461047090612044565b6000818152600b6020526040902060030154348114610b8d5760405162461bcd60e51b815260206004820152603f60248201527f506c65617365207375626d6974207468652061736b696e67207072696365206660448201527f6f7220746865204e465420696e206f7264657220746f20707572636861736500606482015260840161058f565b6000828152600b602052604090206002810180546004909201805460ff191660011790556001600160a01b03198216331790556001600160a01b0316610bd7600980546001019055565b610be2303385611141565b610bec308461051a565b600754600a546040516001600160a01b039092169181156108fc0291906000818181858888f19350505050158015610c28573d6000803e3d6000fd5b506040516001600160a01b038216903480156108fc02916000818181858888f19350505050158015610c5e573d6000803e3d6000fd5b50505050565b610c6f338383611403565b5050565b610c7d33836110c3565b610c995760405162461bcd60e51b815260040161058f90611ef7565b610c5e848484846114d2565b6007546001600160a01b03163314610d0f5760405162461bcd60e51b815260206004820152602760248201527f4f6e6c79204f776e65722063616e2075706461746520746865206c697374696e6044820152666720707269636560c81b606482015260840161058f565b600a55565b6060610d1f82610ff3565b60008281526006602052604081208054610d3890612044565b80601f0160208091040260200160405190810160405280929190818152602001828054610d6490612044565b8015610db15780601f10610d8657610100808354040283529160200191610db1565b820191906000526020600020905b815481529060010190602001808311610d9457829003601f168201915b505050505090506000610dcf60408051602081019091526000815290565b9050805160001415610de2575092915050565b815115610e14578082604051602001610dfc929190611e2a565b60405160208183030381529060405292505050919050565b610e1d84611505565b949350505050565b610e2d611a5c565b6000610e3860085490565b6000908152600b6020908152604091829020825160a0810184528154815260018201546001600160a01b03908116938201939093526002820154909216928201929092526003820154606082015260049091015460ff161515608082015292915050565b60606000610ea960085490565b905060008167ffffffffffffffff811115610ed457634e487b7160e01b600052604160045260246000fd5b604051908082528060200260200182016040528015610f0d57816020015b610efa611a5c565b815260200190600190039081610ef25790505b5090506000805b83811015610fda576000610f29826001611fe9565b6000818152600b6020908152604091829020825160a0810184528154815260018201546001600160a01b039081169382019390935260028201549092169282019290925260038201546060820152600482015460ff161515608082015286519293509091869086908110610fad57634e487b7160e01b600052603260045260246000fd5b6020908102919091010152610fc3600185611fe9565b935050508080610fd29061207f565b915050610f14565b50909392505050565b6000610fee60085490565b905090565b6000818152600260205260409020546001600160a01b03166110525760405162461bcd60e51b8152602060048201526018602482015277115490cdcc8c4e881a5b9d985b1a59081d1bdad95b88125160421b604482015260640161058f565b50565b600081815260046020526040902080546001600160a01b0319166001600160a01b038416908117909155819061108a826108c4565b6001600160a01b03167f8c5be1e5ebec7d5bd14f71427d1e84f3dd0314c0f7b2291e5b200ac8c7c3b92560405160405180910390a45050565b6000806110cf836108c4565b9050806001600160a01b0316846001600160a01b0316148061111657506001600160a01b0380821660009081526005602090815260408083209388168352929052205460ff165b80610e1d5750836001600160a01b031661112f846104f3565b6001600160a01b031614949350505050565b826001600160a01b0316611154826108c4565b6001600160a01b03161461117a5760405162461bcd60e51b815260040161058f90611f96565b6001600160a01b0382166111dc5760405162461bcd60e51b8152602060048201526024808201527f4552433732313a207472616e7366657220746f20746865207a65726f206164646044820152637265737360e01b606482015260840161058f565b6111e98383836001611578565b826001600160a01b03166111fc826108c4565b6001600160a01b0316146112225760405162461bcd60e51b815260040161058f90611f96565b600081815260046020908152604080832080546001600160a01b03199081169091556001600160a01b0387811680865260038552838620805460001901905590871680865283862080546001019055868652600290945282852080549092168417909155905184937fddf252ad1be2c89b69c2b068fc378daa952ba7f163c4a11628f55a4df523b3ef91a4505050565b610c6f828260405180602001604052806000815250611600565b6000828152600260205260409020546001600160a01b03166113475760405162461bcd60e51b815260206004820152602e60248201527f45524337323155524953746f726167653a2055524920736574206f66206e6f6e60448201526d32bc34b9ba32b73a103a37b5b2b760911b606482015260840161058f565b6000828152600660209081526040909120825161063092840190611a8a565b6040805160a081018252838152306020808301828152338486018181526060860188815260016080880181815260008c8152600b9097529890952096518755925193860180546001600160a01b039586166001600160a01b03199182161790915590516002870180549190951691161790925551600384015592516004909201805492151560ff1990931692909217909155610c6f919084611141565b816001600160a01b0316836001600160a01b031614156114655760405162461bcd60e51b815260206004820152601960248201527f4552433732313a20617070726f766520746f2063616c6c657200000000000000604482015260640161058f565b6001600160a01b03838116600081815260056020908152604080832094871680845294825291829020805460ff191686151590811790915591519182527f17307eab39ab6107e8899845ad3d59bd9653f200f220920489ca2b5937696c31910160405180910390a3505050565b6114dd848484611141565b6114e984848484611633565b610c5e5760405162461bcd60e51b815260040161058f90611f44565b606061151082610ff3565b600061152760408051602081019091526000815290565b905060008151116115475760405180602001604052806000815250610a86565b8061155184611740565b604051602001611562929190611e2a565b6040516020818303038152906040529392505050565b6001811115610c5e576001600160a01b038416156115be576001600160a01b038416600090815260036020526040812080548392906115b8908490612001565b90915550505b6001600160a01b03831615610c5e576001600160a01b038316600090815260036020526040812080548392906115f5908490611fe9565b909155505050505050565b61160a83836117eb565b6116176000848484611633565b6106305760405162461bcd60e51b815260040161058f90611f44565b60006001600160a01b0384163b1561173557604051630a85bd0160e11b81526001600160a01b0385169063150b7a0290611677903390899088908890600401611e59565b602060405180830381600087803b15801561169157600080fd5b505af19250505080156116c1575060408051601f3d908101601f191682019092526116be91810190611d34565b60015b61171b573d8080156116ef576040519150601f19603f3d011682016040523d82523d6000602084013e6116f4565b606091505b5080516117135760405162461bcd60e51b815260040161058f90611f44565b805181602001fd5b6001600160e01b031916630a85bd0160e11b149050610e1d565b506001949350505050565b6060600061174d83611984565b600101905060008167ffffffffffffffff81111561177b57634e487b7160e01b600052604160045260246000fd5b6040519080825280601f01601f1916602001820160405280156117a5576020820181803683370190505b5090508181016020015b600019016f181899199a1a9b1b9c1cb0b131b232b360811b600a86061a8153600a85049450846117de576117e3565b6117af565b509392505050565b6001600160a01b0382166118415760405162461bcd60e51b815260206004820181905260248201527f4552433732313a206d696e7420746f20746865207a65726f2061646472657373604482015260640161058f565b6000818152600260205260409020546001600160a01b0316156118a65760405162461bcd60e51b815260206004820152601c60248201527f4552433732313a20746f6b656e20616c7265616479206d696e74656400000000604482015260640161058f565b6118b4600083836001611578565b6000818152600260205260409020546001600160a01b0316156119195760405162461bcd60e51b815260206004820152601c60248201527f4552433732313a20746f6b656e20616c7265616479206d696e74656400000000604482015260640161058f565b6001600160a01b038216600081815260036020908152604080832080546001019055848352600290915280822080546001600160a01b0319168417905551839291907fddf252ad1be2c89b69c2b068fc378daa952ba7f163c4a11628f55a4df523b3ef908290a45050565b60008072184f03e93ff9f4daa797ed6e38ed64bf6a1f0160401b83106119c35772184f03e93ff9f4daa797ed6e38ed64bf6a1f0160401b830492506040015b6d04ee2d6d415b85acef810000000083106119ef576d04ee2d6d415b85acef8100000000830492506020015b662386f26fc100008310611a0d57662386f26fc10000830492506010015b6305f5e1008310611a25576305f5e100830492506008015b6127108310611a3957612710830492506004015b60648310611a4b576064830492506002015b600a831061045b5760010192915050565b6040805160a08101825260008082526020820181905291810182905260608101829052608081019190915290565b828054611a9690612044565b90600052602060002090601f016020900481019282611ab85760008555611afe565b82601f10611ad157805160ff1916838001178555611afe565b82800160010185558215611afe579182015b82811115611afe578251825591602001919060010190611ae3565b50611b0a929150611b0e565b5090565b5b80821115611b0a5760008155600101611b0f565b600067ffffffffffffffff80841115611b3e57611b3e6120b0565b604051601f8501601f19908116603f01168101908282118183101715611b6657611b666120b0565b81604052809350858152868686011115611b7f57600080fd5b858560208301376000602087830101525050509392505050565b80356001600160a01b0381168114611bb057600080fd5b919050565b600060208284031215611bc6578081fd5b610a8682611b99565b60008060408385031215611be1578081fd5b611bea83611b99565b9150611bf860208401611b99565b90509250929050565b600080600060608486031215611c15578081fd5b611c1e84611b99565b9250611c2c60208501611b99565b9150604084013590509250925092565b60008060008060808587031215611c51578081fd5b611c5a85611b99565b9350611c6860208601611b99565b925060408501359150606085013567ffffffffffffffff811115611c8a578182fd5b8501601f81018713611c9a578182fd5b611ca987823560208401611b23565b91505092959194509250565b60008060408385031215611cc7578182fd5b611cd083611b99565b915060208301358015158114611ce4578182fd5b809150509250929050565b60008060408385031215611d01578182fd5b611d0a83611b99565b946020939093013593505050565b600060208284031215611d29578081fd5b8135610a86816120c6565b600060208284031215611d45578081fd5b8151610a86816120c6565b60008060408385031215611d62578182fd5b823567ffffffffffffffff811115611d78578283fd5b8301601f81018513611d88578283fd5b611d9785823560208401611b23565b95602094909401359450505050565b600060208284031215611db7578081fd5b5035919050565b60008151808452611dd6816020860160208601612018565b601f01601f19169290920160200192915050565b805182526020808201516001600160a01b039081169184019190915260408083015190911690830152606080820151908301526080908101511515910152565b60008351611e3c818460208801612018565b835190830190611e50818360208801612018565b01949350505050565b6001600160a01b0385811682528416602082015260408101839052608060608201819052600090611e8c90830184611dbe565b9695505050505050565b6020808252825182820181905260009190848201906040850190845b81811015611ed857611ec5838551611dea565b9284019260a09290920191600101611eb2565b50909695505050505050565b602081526000610a866020830184611dbe565b6020808252602d908201527f4552433732313a2063616c6c6572206973206e6f7420746f6b656e206f776e6560408201526c1c881bdc88185c1c1c9bdd9959609a1b606082015260800190565b60208082526032908201527f4552433732313a207472616e7366657220746f206e6f6e20455243373231526560408201527131b2b4bb32b91034b6b83632b6b2b73a32b960711b606082015260800190565b60208082526025908201527f4552433732313a207472616e736665722066726f6d20696e636f72726563742060408201526437bbb732b960d91b606082015260800190565b60a0810161045b8284611dea565b60008219821115611ffc57611ffc61209a565b500190565b6000828210156120135761201361209a565b500390565b60005b8381101561203357818101518382015260200161201b565b83811115610c5e5750506000910152565b600181811c9082168061205857607f821691505b6020821081141561207957634e487b7160e01b600052602260045260246000fd5b50919050565b60006000198214156120935761209361209a565b5060010190565b634e487b7160e01b600052601160045260246000fd5b634e487b7160e01b600052604160045260246000fd5b6001600160e01b03198116811461105257600080fdfea2646970667358221220b73f8041a26e7a5b3d58e9ab86192120958a2f6cedb6e6ac3c26960daabf75ab64736f6c63430008040033",
  "linkReferences": {},
  "deployedLinkReferences": {}
}